{
  "_format": "hh-sol-artifact-1",
  "contractName": "Vault",
  "sourceName": "contracts/Vault.sol",
  "abi": [
    {
      "inputs": [
        {
          "internalType": "address",
          "name": "_token",
          "type": "address"
        }
      ],
      "stateMutability": "nonpayable",
      "type": "constructor"
    },
    {
      "inputs": [
        {
          "internalType": "uint256",
          "name": "amount",
          "type": "uint256"
        }
      ],
      "name": "deposit",
      "outputs": [],
      "stateMutability": "nonpayable",
      "type": "function"
    },
    {
      "inputs": [
        {
          "internalType": "uint256",
          "name": "amount",
          "type": "uint256"
        },
        {
          "internalType": "uint256",
          "name": "deadline",
          "type": "uint256"
        },
        {
          "internalType": "uint8",
          "name": "v",
          "type": "uint8"
        },
        {
          "internalType": "bytes32",
          "name": "r",
          "type": "bytes32"
        },
        {
          "internalType": "bytes32",
          "name": "s",
          "type": "bytes32"
        }
      ],
      "name": "depositWithPermit",
      "outputs": [],
      "stateMutability": "nonpayable",
      "type": "function"
    },
    {
      "inputs": [],
      "name": "token",
      "outputs": [
        {
          "internalType": "contract IERC20Permit",
          "name": "",
          "type": "address"
        }
      ],
      "stateMutability": "view",
      "type": "function"
    }
  ],
  "bytecode": "0x60a060405234801561001057600080fd5b50604051610767380380610767833981810160405281019061003291906100cf565b8073ffffffffffffffffffffffffffffffffffffffff1660808173ffffffffffffffffffffffffffffffffffffffff1681525050506100fc565b600080fd5b600073ffffffffffffffffffffffffffffffffffffffff82169050919050565b600061009c82610071565b9050919050565b6100ac81610091565b81146100b757600080fd5b50565b6000815190506100c9816100a3565b92915050565b6000602082840312156100e5576100e461006c565b5b60006100f3848285016100ba565b91505092915050565b60805161063c61012b60003960008181609e01528181610135015281816101ec015261029f015261063c6000f3fe608060405234801561001057600080fd5b50600436106100415760003560e01c80634a970be714610046578063b6b55f2514610062578063fc0c546a1461007e575b600080fd5b610060600480360381019061005b919061036b565b61009c565b005b61007c600480360381019061007791906103e6565b6101ea565b005b61008661029d565b6040516100939190610492565b60405180910390f35b7f000000000000000000000000000000000000000000000000000000000000000073ffffffffffffffffffffffffffffffffffffffff1663d505accf333088888888886040518863ffffffff1660e01b815260040161010197969594939291906104fb565b600060405180830381600087803b15801561011b57600080fd5b505af115801561012f573d6000803e3d6000fd5b505050507f000000000000000000000000000000000000000000000000000000000000000073ffffffffffffffffffffffffffffffffffffffff166323b872dd3330886040518463ffffffff1660e01b81526004016101909392919061056a565b602060405180830381600087803b1580156101aa57600080fd5b505af11580156101be573d6000803e3d6000fd5b505050506040513d601f19601f820116820180604052508101906101e291906105d9565b505050505050565b7f000000000000000000000000000000000000000000000000000000000000000073ffffffffffffffffffffffffffffffffffffffff166323b872dd3330846040518463ffffffff1660e01b81526004016102479392919061056a565b602060405180830381600087803b15801561026157600080fd5b505af1158015610275573d6000803e3d6000fd5b505050506040513d601f19601f8201168201806040525081019061029991906105d9565b5050565b7f000000000000000000000000000000000000000000000000000000000000000081565b600080fd5b6000819050919050565b6102d9816102c6565b81146102e457600080fd5b50565b6000813590506102f6816102d0565b92915050565b600060ff82169050919050565b610312816102fc565b811461031d57600080fd5b50565b60008135905061032f81610309565b92915050565b6000819050919050565b61034881610335565b811461035357600080fd5b50565b6000813590506103658161033f565b92915050565b600080600080600060a08688031215610387576103866102c1565b5b6000610395888289016102e7565b95505060206103a6888289016102e7565b94505060406103b788828901610320565b93505060606103c888828901610356565b92505060806103d988828901610356565b9150509295509295909350565b6000602082840312156103fc576103fb6102c1565b5b600061040a848285016102e7565b91505092915050565b600073ffffffffffffffffffffffffffffffffffffffff82169050919050565b6000819050919050565b600061045861045361044e84610413565b610433565b610413565b9050919050565b600061046a8261043d565b9050919050565b600061047c8261045f565b9050919050565b61048c81610471565b82525050565b60006020820190506104a76000830184610483565b92915050565b60006104b882610413565b9050919050565b6104c8816104ad565b82525050565b6104d7816102c6565b82525050565b6104e6816102fc565b82525050565b6104f581610335565b82525050565b600060e082019050610510600083018a6104bf565b61051d60208301896104bf565b61052a60408301886104ce565b61053760608301876104ce565b61054460808301866104dd565b61055160a08301856104ec565b61055e60c08301846104ec565b98975050505050505050565b600060608201905061057f60008301866104bf565b61058c60208301856104bf565b61059960408301846104ce565b949350505050565b60008115159050919050565b6105b6816105a1565b81146105c157600080fd5b50565b6000815190506105d3816105ad565b92915050565b6000602082840312156105ef576105ee6102c1565b5b60006105fd848285016105c4565b9150509291505056fea2646970667358221220f00424ac964285d4c507c9ef40f72b8c477de24bd0cd5d5d44fa44c383ee8a5664736f6c63430008090033",
  "linkReferences": {},
  "deployedLinkReferences": {}
}